{
    "_format": "hh-sol-artifact-1",
    "contractName": "NFTREWARDS",
    "sourceName": "contracts/Reward.sol",
    "abi": [
        {
            "inputs": [
                {
                    "internalType": "address",
                    "name": "_busdAddress",
                    "type": "address"
                },
                {
                    "internalType": "address",
                    "name": "_vaultAddress",
                    "type": "address"
                }
            ],
            "stateMutability": "nonpayable",
            "type": "constructor"
        },
        {
            "anonymous": false,
            "inputs": [
                {
                    "indexed": true,
                    "internalType": "address",
                    "name": "previousOwner",
                    "type": "address"
                },
                {
                    "indexed": true,
                    "internalType": "address",
                    "name": "newOwner",
                    "type": "address"
                }
            ],
            "name": "OwnershipTransferred",
            "type": "event"
        },
        {
            "inputs": [],
            "name": "VaultAddress",
            "outputs": [
                {
                    "internalType": "address",
                    "name": "",
                    "type": "address"
                }
            ],
            "stateMutability": "view",
            "type": "function"
        },
        {
            "inputs": [
                {
                    "internalType": "address",
                    "name": "nftAddress",
                    "type": "address"
                },
                {
                    "internalType": "address",
                    "name": "user_addr",
                    "type": "address"
                },
                {
                    "internalType": "uint256[]",
                    "name": "NFTLIST",
                    "type": "uint256[]"
                }
            ],
            "name": "_claimReward",
            "outputs": [
                {
                    "internalType": "uint256",
                    "name": "",
                    "type": "uint256"
                }
            ],
            "stateMutability": "view",
            "type": "function"
        },
        {
            "inputs": [
                {
                    "internalType": "address",
                    "name": "nftAddress",
                    "type": "address"
                },
                {
                    "internalType": "uint256[]",
                    "name": "NFTLIST",
                    "type": "uint256[]"
                }
            ],
            "name": "claimReward",
            "outputs": [],
            "stateMutability": "nonpayable",
            "type": "function"
        },
        {
            "inputs": [],
            "name": "owner",
            "outputs": [
                {
                    "internalType": "address",
                    "name": "",
                    "type": "address"
                }
            ],
            "stateMutability": "view",
            "type": "function"
        },
        {
            "inputs": [],
            "name": "renounceOwnership",
            "outputs": [],
            "stateMutability": "nonpayable",
            "type": "function"
        },
        {
            "inputs": [
                {
                    "internalType": "address",
                    "name": "",
                    "type": "address"
                },
                {
                    "internalType": "uint256",
                    "name": "",
                    "type": "uint256"
                }
            ],
            "name": "reward",
            "outputs": [
                {
                    "internalType": "uint256",
                    "name": "",
                    "type": "uint256"
                }
            ],
            "stateMutability": "view",
            "type": "function"
        },
        {
            "inputs": [
                {
                    "internalType": "address",
                    "name": "contractAddress",
                    "type": "address"
                },
                {
                    "internalType": "uint256",
                    "name": "tokenId",
                    "type": "uint256"
                }
            ],
            "name": "startReward",
            "outputs": [],
            "stateMutability": "nonpayable",
            "type": "function"
        },
        {
            "inputs": [
                {
                    "internalType": "address",
                    "name": "newOwner",
                    "type": "address"
                }
            ],
            "name": "transferOwnership",
            "outputs": [],
            "stateMutability": "nonpayable",
            "type": "function"
        },
        {
            "inputs": [
                {
                    "internalType": "address",
                    "name": "",
                    "type": "address"
                },
                {
                    "internalType": "address",
                    "name": "",
                    "type": "address"
                }
            ],
            "name": "users",
            "outputs": [
                {
                    "internalType": "uint256",
                    "name": "",
                    "type": "uint256"
                }
            ],
            "stateMutability": "view",
            "type": "function"
        },
        {
            "inputs": [],
            "name": "vault",
            "outputs": [
                {
                    "internalType": "contract Vault2",
                    "name": "",
                    "type": "address"
                }
            ],
            "stateMutability": "view",
            "type": "function"
        }
    ],
    "bytecode": "0x60806040523480156200001157600080fd5b50604051620026163803806200261683398181016040528101906200003791906200033e565b620000576200004b6200020860201b60201c565b6200021060201b60201c565b600073ffffffffffffffffffffffffffffffffffffffff168273ffffffffffffffffffffffffffffffffffffffff161415620000ca576040517f08c379a0000000000000000000000000000000000000000000000000000000008152600401620000c1906200040c565b60405180910390fd5b600073ffffffffffffffffffffffffffffffffffffffff168173ffffffffffffffffffffffffffffffffffffffff1614156200013d576040517f08c379a000000000000000000000000000000000000000000000000000000000815260040162000134906200040c565b60405180910390fd5b81600460006101000a81548173ffffffffffffffffffffffffffffffffffffffff021916908373ffffffffffffffffffffffffffffffffffffffff16021790555080600360006101000a81548173ffffffffffffffffffffffffffffffffffffffff021916908373ffffffffffffffffffffffffffffffffffffffff16021790555080600560006101000a81548173ffffffffffffffffffffffffffffffffffffffff021916908373ffffffffffffffffffffffffffffffffffffffff16021790555050506200042e565b600033905090565b60008060009054906101000a900473ffffffffffffffffffffffffffffffffffffffff169050816000806101000a81548173ffffffffffffffffffffffffffffffffffffffff021916908373ffffffffffffffffffffffffffffffffffffffff1602179055508173ffffffffffffffffffffffffffffffffffffffff168173ffffffffffffffffffffffffffffffffffffffff167f8be0079c531659141344cd1fd0a4f28419497f9722a3daafe3b4186f6b6457e060405160405180910390a35050565b600080fd5b600073ffffffffffffffffffffffffffffffffffffffff82169050919050565b60006200030682620002d9565b9050919050565b6200031881620002f9565b81146200032457600080fd5b50565b60008151905062000338816200030d565b92915050565b60008060408385031215620003585762000357620002d4565b5b6000620003688582860162000327565b92505060206200037b8582860162000327565b9150509250929050565b600082825260208201905092915050565b7f61646472657373207a65726f206973206e6f7420612076616c6964206164647260008201527f6573730000000000000000000000000000000000000000000000000000000000602082015250565b6000620003f460238362000385565b9150620004018262000396565b604082019050919050565b600060208201905081810360008301526200042781620003e5565b9050919050565b6121d8806200043e6000396000f3fe608060405234801561001057600080fd5b506004361061009e5760003560e01c80639b499e4d116100665780639b499e4d14610147578063a2a4a78814610177578063b2af870a14610195578063f2fde38b146101b1578063fbfa77cf146101cd5761009e565b806321670f22146100a35780632a7afae6146100d35780635e80536a146100ef578063715018a61461011f5780638da5cb5b14610129575b600080fd5b6100bd60048036038101906100b891906117e6565b6101eb565b6040516100ca9190611835565b60405180910390f35b6100ed60048036038101906100e891906117e6565b610210565b005b61010960048036038101906101049190611850565b610269565b6040516101169190611835565b60405180910390f35b61012761028e565b005b6101316102a2565b60405161013e919061189f565b60405180910390f35b610161600480360381019061015c9190611a13565b6102cb565b60405161016e9190611835565b60405180910390f35b61017f610eb9565b60405161018c919061189f565b60405180910390f35b6101af60048036038101906101aa9190611a82565b610edf565b005b6101cb60048036038101906101c69190611ade565b611485565b005b6101d5611509565b6040516101e29190611b6a565b60405180910390f35b6002602052816000526040600020602052806000526040600020600091509150505481565b42600260008473ffffffffffffffffffffffffffffffffffffffff1673ffffffffffffffffffffffffffffffffffffffff1681526020019081526020016000206000838152602001908152602001600020819055505050565b6001602052816000526040600020602052806000526040600020600091509150505481565b61029661152f565b6102a060006115ad565b565b60008060009054906101000a900473ffffffffffffffffffffffffffffffffffffffff16905090565b60008060005b83518110156103ee578473ffffffffffffffffffffffffffffffffffffffff168673ffffffffffffffffffffffffffffffffffffffff16636352211e8684815181106103205761031f611b85565b5b60200260200101516040518263ffffffff1660e01b81526004016103449190611835565b602060405180830381865afa158015610361573d6000803e3d6000fd5b505050506040513d601f19601f820116820180604052508101906103859190611bc9565b73ffffffffffffffffffffffffffffffffffffffff16146103db576040517f08c379a00000000000000000000000000000000000000000000000000000000081526004016103d290611c79565b60405180910390fd5b80806103e690611cc8565b9150506102d1565b5060005b8351811015610ead5768056bc75e2d631000008673ffffffffffffffffffffffffffffffffffffffff1663a035b1fe6040518163ffffffff1660e01b8152600401602060405180830381865afa158015610450573d6000803e3d6000fd5b505050506040513d601f19601f820116820180604052508101906104749190611d26565b10806104f65750680ad78ebc5ac62000008673ffffffffffffffffffffffffffffffffffffffff1663a035b1fe6040518163ffffffff1660e01b8152600401602060405180830381865afa1580156104d0573d6000803e3d6000fd5b505050506040513d601f19601f820116820180604052508101906104f49190611d26565b105b156105ca57816201518061016d6064600260008b73ffffffffffffffffffffffffffffffffffffffff1673ffffffffffffffffffffffffffffffffffffffff168152602001908152602001600020600089878151811061055957610558611b85565b5b60200260200101518152602001908152602001600020544261057b9190611d53565b68056bc75e2d6310000060196105919190611d87565b61059b9190611d87565b6105a59190611e10565b6105af9190611e10565b6105b99190611e10565b6105c39190611e41565b9150610e9a565b680ad78ebc5ac62000008673ffffffffffffffffffffffffffffffffffffffff1663a035b1fe6040518163ffffffff1660e01b8152600401602060405180830381865afa15801561061f573d6000803e3d6000fd5b505050506040513d601f19601f820116820180604052508101906106439190611d26565b1015806106c65750681b1ae4d6e2ef5000008673ffffffffffffffffffffffffffffffffffffffff1663a035b1fe6040518163ffffffff1660e01b8152600401602060405180830381865afa1580156106a0573d6000803e3d6000fd5b505050506040513d601f19601f820116820180604052508101906106c49190611d26565b105b156107d957816201518061016d6064600260008b73ffffffffffffffffffffffffffffffffffffffff1673ffffffffffffffffffffffffffffffffffffffff168152602001908152602001600020600089878151811061072957610728611b85565b5b60200260200101518152602001908152602001600020544261074b9190611d53565b680ad78ebc5ac6200000601e6107619190611d87565b61076b9190611d87565b6107759190611e10565b61077f9190611e10565b6107899190611e10565b6107939190611e41565b91506107d46040518060400160405280600381526020017f706179000000000000000000000000000000000000000000000000000000000081525083611671565b610e99565b681b1ae4d6e2ef5000008673ffffffffffffffffffffffffffffffffffffffff1663a035b1fe6040518163ffffffff1660e01b8152600401602060405180830381865afa15801561082e573d6000803e3d6000fd5b505050506040513d601f19601f820116820180604052508101906108529190611d26565b1015806108d55750683635c9adc5dea000008673ffffffffffffffffffffffffffffffffffffffff1663a035b1fe6040518163ffffffff1660e01b8152600401602060405180830381865afa1580156108af573d6000803e3d6000fd5b505050506040513d601f19601f820116820180604052508101906108d39190611d26565b105b156109a957816201518061016d6064600260008b73ffffffffffffffffffffffffffffffffffffffff1673ffffffffffffffffffffffffffffffffffffffff168152602001908152602001600020600089878151811061093857610937611b85565b5b60200260200101518152602001908152602001600020544261095a9190611d53565b681b1ae4d6e2ef50000060236109709190611d87565b61097a9190611d87565b6109849190611e10565b61098e9190611e10565b6109989190611e10565b6109a29190611e41565b9150610e98565b683635c9adc5dea000008673ffffffffffffffffffffffffffffffffffffffff1663a035b1fe6040518163ffffffff1660e01b8152600401602060405180830381865afa1580156109fe573d6000803e3d6000fd5b505050506040513d601f19601f82011682018060405250810190610a229190611d26565b101580610aa55750686c6b935b8bbd4000008673ffffffffffffffffffffffffffffffffffffffff1663a035b1fe6040518163ffffffff1660e01b8152600401602060405180830381865afa158015610a7f573d6000803e3d6000fd5b505050506040513d601f19601f82011682018060405250810190610aa39190611d26565b105b15610b7957816201518061016d6064600260008b73ffffffffffffffffffffffffffffffffffffffff1673ffffffffffffffffffffffffffffffffffffffff1681526020019081526020016000206000898781518110610b0857610b07611b85565b5b602002602001015181526020019081526020016000205442610b2a9190611d53565b683635c9adc5dea000006028610b409190611d87565b610b4a9190611d87565b610b549190611e10565b610b5e9190611e10565b610b689190611e10565b610b729190611e41565b9150610e97565b686c6b935b8bbd4000008673ffffffffffffffffffffffffffffffffffffffff1663a035b1fe6040518163ffffffff1660e01b8152600401602060405180830381865afa158015610bce573d6000803e3d6000fd5b505050506040513d601f19601f82011682018060405250810190610bf29190611d26565b101580610c76575069010f0cf064dd592000008673ffffffffffffffffffffffffffffffffffffffff1663a035b1fe6040518163ffffffff1660e01b8152600401602060405180830381865afa158015610c50573d6000803e3d6000fd5b505050506040513d601f19601f82011682018060405250810190610c749190611d26565b105b15610d4a57816201518061016d6064600260008b73ffffffffffffffffffffffffffffffffffffffff1673ffffffffffffffffffffffffffffffffffffffff1681526020019081526020016000206000898781518110610cd957610cd8611b85565b5b602002602001015181526020019081526020016000205442610cfb9190611d53565b686c6b935b8bbd400000602d610d119190611d87565b610d1b9190611d87565b610d259190611e10565b610d2f9190611e10565b610d399190611e10565b610d439190611e41565b9150610e96565b69010f0cf064dd592000008673ffffffffffffffffffffffffffffffffffffffff1663a035b1fe6040518163ffffffff1660e01b8152600401602060405180830381865afa158015610da0573d6000803e3d6000fd5b505050506040513d601f19601f82011682018060405250810190610dc49190611d26565b10610e9557816201518061016d6064600260008b73ffffffffffffffffffffffffffffffffffffffff1673ffffffffffffffffffffffffffffffffffffffff1681526020019081526020016000206000898781518110610e2757610e26611b85565b5b602002602001015181526020019081526020016000205442610e499190611d53565b69010f0cf064dd592000006032610e609190611d87565b610e6a9190611d87565b610e749190611e10565b610e7e9190611e10565b610e889190611e10565b610e929190611e41565b91505b5b5b5b5b5b8080610ea590611cc8565b9150506103f2565b50809150509392505050565b600360009054906101000a900473ffffffffffffffffffffffffffffffffffffffff1681565b818073ffffffffffffffffffffffffffffffffffffffff166316ada5476040518163ffffffff1660e01b8152600401602060405180830381865afa158015610f2b573d6000803e3d6000fd5b505050506040513d601f19601f82011682018060405250810190610f4f9190611d26565b4211610f90576040517f08c379a0000000000000000000000000000000000000000000000000000000008152600401610f8790611ee3565b60405180910390fd5b60008373ffffffffffffffffffffffffffffffffffffffff166370a08231336040518263ffffffff1660e01b8152600401610fcb919061189f565b602060405180830381865afa158015610fe8573d6000803e3d6000fd5b505050506040513d601f19601f8201168201806040525081019061100c9190611d26565b1161104c576040517f08c379a000000000000000000000000000000000000000000000000000000000815260040161104390611c79565b60405180910390fd5b60005b825181101561116c573373ffffffffffffffffffffffffffffffffffffffff168473ffffffffffffffffffffffffffffffffffffffff16636352211e85848151811061109e5761109d611b85565b5b60200260200101516040518263ffffffff1660e01b81526004016110c29190611835565b602060405180830381865afa1580156110df573d6000803e3d6000fd5b505050506040513d601f19601f820116820180604052508101906111039190611bc9565b73ffffffffffffffffffffffffffffffffffffffff1614611159576040517f08c379a000000000000000000000000000000000000000000000000000000000815260040161115090611c79565b60405180910390fd5b808061116490611cc8565b91505061104f565b50600061117a8433856102cb565b905060005b835181101561120a5742600260008773ffffffffffffffffffffffffffffffffffffffff1673ffffffffffffffffffffffffffffffffffffffff16815260200190815260200160002060008684815181106111dd576111dc611b85565b5b6020026020010151815260200190815260200160002081905550808061120290611cc8565b91505061117f565b5080600160008673ffffffffffffffffffffffffffffffffffffffff1673ffffffffffffffffffffffffffffffffffffffff16815260200190815260200160002060003373ffffffffffffffffffffffffffffffffffffffff1673ffffffffffffffffffffffffffffffffffffffff168152602001908152602001600020546112939190611e41565b600160008673ffffffffffffffffffffffffffffffffffffffff1673ffffffffffffffffffffffffffffffffffffffff16815260200190815260200160002060003373ffffffffffffffffffffffffffffffffffffffff1673ffffffffffffffffffffffffffffffffffffffff16815260200190815260200160002081905550600560009054906101000a900473ffffffffffffffffffffffffffffffffffffffff1673ffffffffffffffffffffffffffffffffffffffff1663cc3bcaf3826040518263ffffffff1660e01b815260040161136e9190611835565b600060405180830381600087803b15801561138857600080fd5b505af115801561139c573d6000803e3d6000fd5b50505050600460009054906101000a900473ffffffffffffffffffffffffffffffffffffffff1673ffffffffffffffffffffffffffffffffffffffff1663a9059cbb33836040518363ffffffff1660e01b81526004016113fd929190611f03565b6020604051808303816000875af115801561141c573d6000803e3d6000fd5b505050506040513d601f19601f820116820180604052508101906114409190611f64565b61147f576040517f08c379a000000000000000000000000000000000000000000000000000000000815260040161147690611fdd565b60405180910390fd5b50505050565b61148d61152f565b600073ffffffffffffffffffffffffffffffffffffffff168173ffffffffffffffffffffffffffffffffffffffff1614156114fd576040517f08c379a00000000000000000000000000000000000000000000000000000000081526004016114f49061206f565b60405180910390fd5b611506816115ad565b50565b600560009054906101000a900473ffffffffffffffffffffffffffffffffffffffff1681565b61153761170d565b73ffffffffffffffffffffffffffffffffffffffff166115556102a2565b73ffffffffffffffffffffffffffffffffffffffff16146115ab576040517f08c379a00000000000000000000000000000000000000000000000000000000081526004016115a2906120db565b60405180910390fd5b565b60008060009054906101000a900473ffffffffffffffffffffffffffffffffffffffff169050816000806101000a81548173ffffffffffffffffffffffffffffffffffffffff021916908373ffffffffffffffffffffffffffffffffffffffff1602179055508173ffffffffffffffffffffffffffffffffffffffff168173ffffffffffffffffffffffffffffffffffffffff167f8be0079c531659141344cd1fd0a4f28419497f9722a3daafe3b4186f6b6457e060405160405180910390a35050565b6117098282604051602401611687929190612172565b6040516020818303038152906040527fb60e72cc000000000000000000000000000000000000000000000000000000007bffffffffffffffffffffffffffffffffffffffffffffffffffffffff19166020820180517bffffffffffffffffffffffffffffffffffffffffffffffffffffffff8381831617835250505050611715565b5050565b600033905090565b60008151905060006a636f6e736f6c652e6c6f679050602083016000808483855afa5050505050565b6000604051905090565b600080fd5b600080fd5b600073ffffffffffffffffffffffffffffffffffffffff82169050919050565b600061177d82611752565b9050919050565b61178d81611772565b811461179857600080fd5b50565b6000813590506117aa81611784565b92915050565b6000819050919050565b6117c3816117b0565b81146117ce57600080fd5b50565b6000813590506117e0816117ba565b92915050565b600080604083850312156117fd576117fc611748565b5b600061180b8582860161179b565b925050602061181c858286016117d1565b9150509250929050565b61182f816117b0565b82525050565b600060208201905061184a6000830184611826565b92915050565b6000806040838503121561186757611866611748565b5b60006118758582860161179b565b92505060206118868582860161179b565b9150509250929050565b61189981611772565b82525050565b60006020820190506118b46000830184611890565b92915050565b600080fd5b6000601f19601f8301169050919050565b7f4e487b7100000000000000000000000000000000000000000000000000000000600052604160045260246000fd5b611908826118bf565b810181811067ffffffffffffffff82111715611927576119266118d0565b5b80604052505050565b600061193a61173e565b905061194682826118ff565b919050565b600067ffffffffffffffff821115611966576119656118d0565b5b602082029050602081019050919050565b600080fd5b600061198f61198a8461194b565b611930565b905080838252602082019050602084028301858111156119b2576119b1611977565b5b835b818110156119db57806119c788826117d1565b8452602084019350506020810190506119b4565b5050509392505050565b600082601f8301126119fa576119f96118ba565b5b8135611a0a84826020860161197c565b91505092915050565b600080600060608486031215611a2c57611a2b611748565b5b6000611a3a8682870161179b565b9350506020611a4b8682870161179b565b925050604084013567ffffffffffffffff811115611a6c57611a6b61174d565b5b611a78868287016119e5565b9150509250925092565b60008060408385031215611a9957611a98611748565b5b6000611aa78582860161179b565b925050602083013567ffffffffffffffff811115611ac857611ac761174d565b5b611ad4858286016119e5565b9150509250929050565b600060208284031215611af457611af3611748565b5b6000611b028482850161179b565b91505092915050565b6000819050919050565b6000611b30611b2b611b2684611752565b611b0b565b611752565b9050919050565b6000611b4282611b15565b9050919050565b6000611b5482611b37565b9050919050565b611b6481611b49565b82525050565b6000602082019050611b7f6000830184611b5b565b92915050565b7f4e487b7100000000000000000000000000000000000000000000000000000000600052603260045260246000fd5b600081519050611bc381611784565b92915050565b600060208284031215611bdf57611bde611748565b5b6000611bed84828501611bb4565b91505092915050565b600082825260208201905092915050565b7f596f7520646f206e6f7420686176652061636365737320746f2074686973204e60008201527f4654000000000000000000000000000000000000000000000000000000000000602082015250565b6000611c63602283611bf6565b9150611c6e82611c07565b604082019050919050565b60006020820190508181036000830152611c9281611c56565b9050919050565b7f4e487b7100000000000000000000000000000000000000000000000000000000600052601160045260246000fd5b6000611cd3826117b0565b91507fffffffffffffffffffffffffffffffffffffffffffffffffffffffffffffffff821415611d0657611d05611c99565b5b600182019050919050565b600081519050611d20816117ba565b92915050565b600060208284031215611d3c57611d3b611748565b5b6000611d4a84828501611d11565b91505092915050565b6000611d5e826117b0565b9150611d69836117b0565b925082821015611d7c57611d7b611c99565b5b828203905092915050565b6000611d92826117b0565b9150611d9d836117b0565b9250817fffffffffffffffffffffffffffffffffffffffffffffffffffffffffffffffff0483118215151615611dd657611dd5611c99565b5b828202905092915050565b7f4e487b7100000000000000000000000000000000000000000000000000000000600052601260045260246000fd5b6000611e1b826117b0565b9150611e26836117b0565b925082611e3657611e35611de1565b5b828204905092915050565b6000611e4c826117b0565b9150611e57836117b0565b9250827fffffffffffffffffffffffffffffffffffffffffffffffffffffffffffffffff03821115611e8c57611e8b611c99565b5b828201905092915050565b7f686172766573742074696d6520206973206e6f7420636f6d706c657465640000600082015250565b6000611ecd601e83611bf6565b9150611ed882611e97565b602082019050919050565b60006020820190508181036000830152611efc81611ec0565b9050919050565b6000604082019050611f186000830185611890565b611f256020830184611826565b9392505050565b60008115159050919050565b611f4181611f2c565b8114611f4c57600080fd5b50565b600081519050611f5e81611f38565b92915050565b600060208284031215611f7a57611f79611748565b5b6000611f8884828501611f4f565b91505092915050565b7f6275736420746f6b656e207472616e73666572206661696c6564000000000000600082015250565b6000611fc7601a83611bf6565b9150611fd282611f91565b602082019050919050565b60006020820190508181036000830152611ff681611fba565b9050919050565b7f4f776e61626c653a206e6577206f776e657220697320746865207a65726f206160008201527f6464726573730000000000000000000000000000000000000000000000000000602082015250565b6000612059602683611bf6565b915061206482611ffd565b604082019050919050565b600060208201905081810360008301526120888161204c565b9050919050565b7f4f776e61626c653a2063616c6c6572206973206e6f7420746865206f776e6572600082015250565b60006120c5602083611bf6565b91506120d08261208f565b602082019050919050565b600060208201905081810360008301526120f4816120b8565b9050919050565b600081519050919050565b60005b83811015612124578082015181840152602081019050612109565b83811115612133576000848401525b50505050565b6000612144826120fb565b61214e8185611bf6565b935061215e818560208601612106565b612167816118bf565b840191505092915050565b6000604082019050818103600083015261218c8185612139565b905061219b6020830184611826565b939250505056fea26469706673582212208500489bcc73c12d2d60aa670c873dd805fd84b1c318afa1824a992f7dfae3a364736f6c634300080a0033",
    "linkReferences": {},
    "deployedLinkReferences": {}
}